:100000000C940A020C9427020C9427020C942702E9
:100010000C9427020C9427020C9427020C942702BC
:100020000C9427020C9427020C9427020C942702AC
:100030000C9427020C9427020C9427020C9427029C
:100040000C9427020C9427020C9427020C9427028C
:100050000C942702000000000000005F0000000771
:10006000000700147F147F14242A7F2A1223130808
:10007000646236495522500005030000001C2241ED
:10008000000041221C00082A1C2A0808083E080813
:100090000050300000080808080800303000002038
:1000A000100804023E5149453E00427F4000426133
:1000B0005149462141454B311814127F10274545BF
:1000C00045393C4A494930017109050336494949D6
:1000D00036064949291E0036360000005636000013
:1000E00000081422411414141414412214080002AC
:1000F00001510906324979413E7E1111117E7F4935
:100100004949363E414141227F4141221C7F4949B4
:1001100049417F090901013E414151327F080808E8
:100120007F00417F41002040413F017F0814224170
:100130007F404040407F0204027F7F0408107F3EE2
:100140004141413E7F090909063E4151215E7F0937
:10015000192946464949493101017F01013F404083
:10016000403F1F2040201F7F2018207F6314081469
:10017000630304780403615149454300007F414112
:10018000020408102041417F0000040201020440E3
:1001900040404040000102040020545454787F48FD
:1001A0004444383844444420384444487F38545404
:1001B0005418087E090102081454543C7F080404B2
:1001C0007800447D40002040443D00007F102844DA
:1001D00000417F40007C041804787C0804047838CF
:1001E000444444387C14141408081414187C7C0803
:1001F0000404084854545420043F4440203C4040E8
:10020000207C1C2040201C3C4030403C44281028CE
:10021000440C5050503C4464544C44000836410057
:1002200000007F0000004136080008082A1C08086A
:100230001C2A0808000000000000005F0000000702
:10024000000700147F147F14242A7F2A1223130826
:10025000646236495522500005030000001C22410B
:10026000000041221C00082A1C2A0808083E080831
:100270000050300000080808080800303000002056
:10028000100804023E5149453E00427F4000426151
:100290005149462141454B311814127F10274545DD
:1002A00045393C4A494930017109050336494949F4
:1002B00036064949291E0036360000005636000031
:1002C00000081422411414141414412214080002CA
:1002D00001510906324979413E7E1111117E7F4953
:1002E0004949363E414141227F4141221C7F4949D3
:1002F00049417F090901013E414151327F08080807
:100300007F00417F41002040413F017F081422418E
:100310007F404040407F0204027F7F0408107F3E00
:100320004141413E7F090909063E4151215E7F0955
:10033000192946464949493101017F01013F4040A1
:10034000403F1F2040201F7F2018207F6314081487
:10035000630304780403615149454300007F414130
:10036000020408102041417F000004020102044001
:1003700040404040000102040020545454787F481B
:100380004444383844444420384444487F38545422
:100390005418087E090102081454543C7F080404D0
:1003A0007800447D40002040443D00007F102844F8
:1003B00000417F40007C041804787C0804047838ED
:1003C000444444387C14141408081414187C7C0821
:1003D0000404084854545420043F4440203C404006
:1003E000207C1C2040201C3C4030403C44281028ED
:1003F000440C5050503C4464544C44000836410076
:1004000000007F0000004136080008082A1C080888
:100410001C2A080811241FBECFE5D8E0DEBFCDBFDF
:1004200010E0A0E6B0E0E0E3FDE102C005900D922F
:10043000AC37B107D9F710E0ACE7B0E001C01D92CE
:10044000AE37B107E1F70E9429020C94960E0C9486
:1004500000000F931F93DF93CF93CDB7DEB7AA971A
:100460000FB6F894DEBF0FBECDBF0E94CB070E942F
:10047000200881E061E00E94E20780E690E00E94AF
:10048000770880E090E0AAE7B4E489839A83AB839D
:10049000BC8369817A818B819C8120E030E04AE7CE
:1004A00055E40E94F30ADC01CB018D839E83AF8368
:1004B000B88711E06D817E818F81988520E030E0E2
:1004C00040E85FE30E944D0C88230CF010E01123FC
:1004D00029F081E090E09A87898746C011E06D811C
:1004E0007E818F81988520E03FEF4FE757E40E949F
:1004F000ED0B18160CF010E0112361F169817A817F
:100500008B819C8120E030E040E251E40E94F30ABC
:10051000DC01CB01BC01CD010E941F09DC01CB0134
:100520009A87898712C080E991E09C878B878B85A9
:100530009C858C01C8010197F1F78C011C870B8702
:1005400089859A8501979A87898789859A850097F1
:1005500051F717C06D817E818F8198850E941F0998
:10056000DC01CB019A87898789859A859E878D874B
:100570008D859E858C01C8010197F1F78C011E873E
:100580000D870E94200880E460E24CE10E9427046D
:1005900080E090E0AAE7B4E48F87988BA98BBA8BB0
:1005A0006F85788989899A8920E030E04AE755E4A7
:1005B0000E94F30ADC01CB018B8B9C8BAD8BBE8B35
:1005C00011E06B897C898D899E8920E030E040E8CC
:1005D0005FE30E944D0C88230CF010E0112329F0FA
:1005E00081E090E0988F8F8B46C011E06B897C8909
:1005F0008D899E8920E03FEF4FE757E40E94ED0B85
:1006000018160CF010E0112361F16F857889898943
:100610009A8920E030E040E251E40E94F30ADC01D4
:10062000CB01BC01CD010E941F09DC01CB01988FD9
:100630008F8B12C080E991E09A8F898F898D9A8D76
:100640008C01C8010197F1F78C011A8F098F8F89EE
:10065000988D0197988F8F8B8F89988D009751F780
:1006600017C06B897C898D899E890E941F09DC01D6
:10067000CB01988F8F8B8F89988D9C8F8B8F8B8DD3
:100680009C8D8C01C8010197F1F78C011C8F0B8F99
:100690000E9420088EE16CE046E428E20E94D30329
:1006A00080E090E0AAE7B4E48D8F9E8FAF8FB8A36F
:1006B0006D8D7E8D8F8D98A120E030E04AE755E466
:1006C0000E94F30ADC01CB0189A39AA3ABA3BCA3CC
:1006D00011E069A17AA18BA19CA120E030E040E863
:1006E0005FE30E944D0C88230CF010E0112329F0E9
:1006F00081E090E09EA38DA346C011E069A17AA19C
:100700008BA19CA120E03FEF4FE757E40E94ED0B47
:1007100018160CF010E0112361F16D8D7E8D8F8D18
:1007200098A120E030E040E251E40E94F30ADC01AD
:10073000CB01BC01CD010E941F09DC01CB019EA3AE
:100740008DA312C080E991E098A78FA38FA198A5EF
:100750008C01C8010197F1F78C0118A70FA38DA197
:100760009EA101979EA38DA38DA19EA1009751F7F5
:1007700017C069A17AA18BA19CA10E941F09DC016D
:10078000CB019EA38DA38DA19EA19AA789A789A520
:100790009AA58C01C8010197F1F78C011AA709A746
:1007A0000E94200866CEDF93CF9300D000D00F9236
:1007B000CDB7DEB78A836B834C832D8319821BC030
:1007C0009B818981292F280F909172008A81622F45
:1007D000492F0E9496089A818C81890F81502B8124
:1007E0009981290F90917200622F492F0E949608DB
:1007F00089818F5F898399818D81981708F3198288
:100800001AC09A818981890F909172006B81492F5A
:100810000E9496089A818981890F2B819D81920F70
:10082000292F215090917200622F492F0E94960823
:1008300089818F5F898399818C81981710F30F903C
:100840000F900F900F900F90CF91DF910895DF934D
:10085000CF93CDB7DEB72D970FB6F894DEBF0FBE9E
:10086000CDBF8B876C874D878D85882F90E09A83CD
:1008700089831C821B828D85282F30E080E090E0E8
:10088000821B930B880F991F01969E838D8381E0B5
:1008900090E098878F831A86198698C099818B85F6
:1008A000890F2B819C85290F90917200622F492F0F
:1008B0000E94960889819B85292F281B822F2B81D6
:1008C0009C85290F90917200622F492F0E949608F3
:1008D00089819B85292F281B822F9B812C85291B91
:1008E00090917200622F492F0E94960899818B8502
:1008F000890F9B812C85291B90917200622F492FB3
:100900000E9496089B818B85890F29819C85290FE0
:1009100090917200622F492F0E9496088B819B85CF
:10092000292F281B822F29819C85290F90917200E5
:10093000622F492F0E9496088B819B85292F281BA7
:10094000822F99812C85291B90917200622F492F4B
:100950000E9496089B818B85890F99812C85291B84
:1009600090917200622F492F0E9496088B819C8182
:1009700001969C838B8329853A858F819885820F88
:10098000931F9A8789878F819885029698878F838E
:1009900089859A859C01220F331F8D819E81820F4C
:1009A000931F1816190694F489819A8101979A83E6
:1009B000898329853A858D819E81820F931F9A872D
:1009C00089878D819E8102969E838D8329813A81BC
:1009D0008B819C81281739070CF060CF2D960FB6BC
:1009E000F894DEBF0FBECDBFCF91DF910895DF93A6
:1009F000CF93CDB7DEB76C970FB6F894DEBF0FBEBE
:100A0000CDBF9E8B8D8B788F6F8B5A8F498F3C8F8C
:100A10002B8F298D3A8D8D899E89A901481B590BF1
:100A2000CA019A8789872B8D3C8D8F89988DA90162
:100A3000481B590BCA019C878B8729853A85898574
:100A40009A85820F931F9E878D872B853C858B858A
:100A50009C85820F931F988B8F878D899E899A839F
:100A600089838F89988D9C838B8381E090E09E831E
:100A70008D8381E090E098878F8389859A8599237B
:100A800094F48FEF9FEF9E838D8389859A8590954F
:100A900081959F4F9A8789878D859E8590958195B1
:100AA0009F4F9E878D878B859C85992394F48FEF2C
:100AB0009FEF98878F838B859C85909581959F4F1D
:100AC0009C878B878F859889909581959F4F988B70
:100AD0008F878D892F8990917200622F492F0E94F4
:100AE000960889859A85009729F48B859C850097BF
:100AF00009F47CC02B853C8589859A8582179307EC
:100B0000DCF11A8A198A29813A818D819E81820FAE
:100B1000931F9A83898329893A898F859889820FBF
:100B2000931F9A8B898B29893A8989859A8582179F
:100B3000930794F42B813C818F819885820F931FBA
:100B40009C838B8329893A898D859E85A901481BC1
:100B5000590BCA019A8B898B89812B8190917200E4
:100B6000622F492F0E94960829813A81898D9A8D9A
:100B70002817390741F63AC01C8A1B8A2B813C8111
:100B80008F819885820F931F9C838B832B893C894F
:100B90008D859E85820F931F9C8B8B8B2B893C8927
:100BA0008B859C858217930794F429813A818D81E6
:100BB0009E81820F931F9A8389832B893C898F851D
:100BC0009889A901481B590BCA019C8B8B8B898181
:100BD0002B8190917200622F492F0E9496082B81E1
:100BE0003C818B8D9C8D2817390741F66C960FB68A
:100BF000F894DEBF0FBECDBFCF91DF910895DF9394
:100C0000CF93CDB7DEB70000CF91DF910895DF938A
:100C1000CF930F92CDB7DEB789838981882F90E07B
:100C20008130910579F082309105B1F00097E9F4B7
:100C300088E390E028E330E0F90120812F7EFC0179
:100C4000208313C088E390E028E330E0F90120819D
:100C5000277FFC01208309C088E390E028E330E08F
:100C6000F9012081FC01208300000F90CF91DF91DA
:100C70000895DF93CF930F92CDB7DEB78983898133
:100C8000882F90E08130910579F082309105B1F0A4
:100C90000097E9F488E390E028E330E0F90120814F
:100CA0002061FC01208313C088E390E028E330E05A
:100CB000F90120812860FC01208309C088E390E0CD
:100CC00028E330E0F9012081FC01208300000F902F
:100CD000CF91DF910895DF93CF9300D0CDB7DEB7EA
:100CE0008A838AE390E0FC01108288E390E028E3A5
:100CF00030E0F90120812260FC01208388E390E04C
:100D000028E330E0F90120812B7FFC0120838A81D8
:100D10000E94070688E390E028E330E0F901208193
:100D20002160FC0120830E94FF0589E390E0FC0123
:100D30008081898388E390E028E330E0F901208115
:100D40002E7FFC0120838A810E94390689810F90C1
:100D50000F90CF91DF910895DF93CF9300D0CDB75F
:100D6000DEB789836A8300008A810E946B0688232C
:100D7000DCF38AE390E02FEFFC01208388E390E02E
:100D800028E330E0F9012081297FFC0120838A815A
:100D90000E9407068BE390E02981FC01208388E311
:100DA00090E028E330E0F90120812160FC012083FC
:100DB0000E94FF0588E390E028E330E0F9012081FC
:100DC0002E7FFC0120838A810E9439060F900F90AC
:100DD000CF91DF910895DF93CF930F92CDB7DEB718
:100DE000000080917C0082958695869583700E9494
:100DF0006B068823B4F38AE390E0FC01108288E359
:100E000090E028E330E0F90120812660FC01208396
:100E100080917C0082958695869583700E94070656
:100E200088E390E028E330E0F90120812160FC01B3
:100E300020830E94FF0589E390E0FC018081898383
:100E400088E390E028E330E0F90120812E7FFC0167
:100E5000208380917C0082958695869583700E9480
:100E6000390680917C008F5F80937C0089810F9090
:100E7000CF91DF910895DF93CF930F92CDB7DEB777
:100E80008983000080917C00829586958695837089
:100E90000E946B068823B4F38AE390E02FEFFC01F5
:100EA000208388E390E028E330E0F90120812D7F62
:100EB000FC01208388E390E028E330E0F901208101
:100EC0002460FC0120838BE390E02981FC012083D6
:100ED00080917C0082958695869583700E94070696
:100EE00088E390E028E330E0F90120812160FC01F3
:100EF00020830E94FF0588E390E028E330E0F901B9
:100F000020812E7FFC01208380917C008295869534
:100F1000869583700E94390680917C008F5F809354
:100F20007C000F90CF91DF910895DF93CF93CDB7E1
:100F3000DEB787E390E027E330E0F90120812F61FD
:100F4000FC01208388E390E028E330E0F901208170
:100F50002861FC012083CF91DF9108951F93DF93D7
:100F6000CF9300D000D00F92CDB7DEB79D838C8396
:100F70008C819D819A83898389819A81FC01149156
:100F80001B838B810F900F900F900F900F90CF913C
:100F9000DF911F910895DF93CF930F92CDB7DEB706
:100FA0000E949507198207C08FE369810E94AC06F1
:100FB00089818F5F898389818330B0F30F90CF91CE
:100FC000DF910895DF93CF9300D00F92CDB7DEB7B6
:100FD0008A836B838A8180937C008B8180937D00E0
:100FE000198210C080E469810E94AC068B81886BF5
:100FF00069810E94AC0680EC69810E94AC068981FF
:101000008F5F89838981823068F38A818F738064DE
:101010009A819295969596959370692F0E94AC0649
:101020008B81886B9A819295969596959370692F8E
:101030000E94AC060F900F900F90CF91DF91089512
:10104000DF93CF9300D0CDB7DEB71A8212C080E015
:101050006A810E94E207198206C080E00E943B0775
:1010600089818F5F898389818823BCF78A818F5F1B
:101070008A838A81883058F30F900F90CF91DF9147
:101080000895DF93CF9300D00F92CDB7DEB78B8357
:101090008B8180528B831A8219821BC08B81882F8F
:1010A00090E09C01220F331F220F331F280F391F9E
:1010B00084E392E0280F391F89819A81820F931F60
:1010C0000E94AE070E943B0789819A8101969A830C
:1010D000898389819A818530910504F380E00E949B
:1010E0003B070F900F900F90CF91DF910895DF9302
:1010F000CF9300D0CDB7DEB79A8389830CC08981A6
:101100009A81FC01208189819A8101969A83898341
:10111000822F0E94410889819A81FC018081882365
:1011200071F70F900F90CF91DF910895DF93CF93D8
:1011300000D000D0CDB7DEB78A836B834C838B8120
:10114000982F9695969596958A81692F0E94E20729
:101150000E94EB0689838B81982F9695969596959C
:101160008A81692F0E94E2070E94EB0689838B81A6
:10117000982F9695969596958A81692F0E94E207F9
:101180008B81882F90E09C012770307081E090E087
:1011900002C0880F991F2A95E2F7982F8981892B21
:1011A000898389810E943B070F900F900F900F90C9
:1011B000CF91DF9108950F93DF93CF93CDB7DEB733
:1011C00028970FB6F894DEBF0FBECDBF9C838B83EC
:1011D0006D834E832F8308871A821FC09E818A8168
:1011E000980F8D81692F0E94E20719820FC08B81B1
:1011F0009C812B813C812F5F3F4F3C832B830E943E
:10120000AE070E943B0789818F5F898399818F8117
:10121000981768F38A818F5F8A838885982F9695BF
:10122000969596958A818917C8F228960FB6F894F4
:10123000DEBF0FBECDBFCF91DF910F910895EF922A
:10124000FF920F931F937B018C0120E030E040E080
:101250005FE40E941D0C87FD11C0C801B70120E0AA
:1012600030E040E05FE40E94C20A0E947D0C9B01D6
:10127000AC01205030404040504806C0C801B70182
:101280000E947D0C9B01AC01B901CA011F910F9115
:10129000FF90EF900895A0E0B0E0E1E5F9E00C9454
:1012A000630EFC01EA018081823008F438C1DB0161
:1012B0009C91923008F430C1843059F4943009F094
:1012C0002EC1918111968C911197981709F021C127
:1012D00026C1943009F420C19230B1F4823009F073
:1012E0001EC1CA01AF0128E0DA010D90AD01DC0199
:1012F0000D92CD012150C1F7DB0111968C91119710
:101300009181892389830AC1823009F405C1C28091
:10131000D380DB0112966D907C90139724813581E8
:10132000468157811496ED90FD900D911C91179771
:10133000C601861997095C0197FF04C0AA24BB2443
:10134000A81AB90AB0E2AB16B1040CF061C01816C5
:1013500019066CF5370148010A2C04C0969487944D
:10136000779467940A94D2F781E090E0A0E0B0E02F
:101370000A2C04C0880F991FAA1FBB1F0A94D2F71A
:101380000197A109B1098E219F21A023B123EE2449
:10139000FF248701E3940097A105B10519F4EE2419
:1013A000FF248701E628F728082919293CC000975F
:1013B000D1F1CA0CDB1C39014A010A2C04C09694F5
:1013C0008794779467940A94D2F781E090E0A0E044
:1013D000B0E00A2C04C0880F991FAA1FBB1F0A94F3
:1013E000D2F70197A109B10982239323A423B5233E
:1013F00021E030E040E050E00097A105B10519F48C
:1014000020E030E0A90126293729482959290BC0B5
:101410006C147D0424F4EE24FF24870104C06301CE
:1014200020E030E0A9018181FB019181891709F455
:1014300045C0882349F0D801C701821B930BA40B38
:10144000B50B9C01AD0104C02E193F09400B510B97
:1014500057FD04C01982DB82CA820BC081E08983F8
:10146000DB82CA8250954095309521953F4F4F4F72
:101470005F4F2C833D834E835F830DC0880F991F80
:10148000AA1FBB1F8C839D83AE83BF838A819B81F0
:1014900001979B838A838C819D81AE81BF819C0152
:1014A000AD0121503040404050402F3FEFEF3E070C
:1014B000EFEF4E07EFE35E0708F30BC08983DB8293
:1014C000CA822E0D3F1D401F511F2C833D834E832A
:1014D0005F8383E088832C813D814E815F8157FF4C
:1014E0001DC0DA01C90181709070A070B07056956E
:1014F000479537952795822B932BA42BB52B8C835F
:101500009D83AE83BF838A819B8101969B838A835F
:1015100005C0E3E7F0E003C0FB0101C0FE01CF011D
:10152000CDB7DEB7EEE00C947F0EA0E2B0E0EBE9C1
:10153000FAE00C946B0E69837A838B839C832D83F2
:101540003E834F83588789E0E82EF12CEC0EFD1E78
:10155000CE010196B7010E949D0D8E010F5E1F4FB7
:10156000CE010596B8010E949D0DC701B801AE01DC
:10157000475E5F4F0E944B090E94CF0CA096E6E0A9
:101580000C94870EA0E2B0E0E8ECFAE00C946B0E4D
:1015900069837A838B839C832D833E834F83588713
:1015A0008E01075F1F4FCE010196B8010E949D0D6D
:1015B00091E1E92EF12CEC0EFD1ECE010596B7014E
:1015C0000E949D0D8A8991E089278A8BC801B70105
:1015D000AE01475E5F4F0E944B090E94CF0CA09660
:1015E000E6E00C94870EA0E2B0E0E9EFFAE00C949C
:1015F0005F0E69837A838B839C832D833E834F8325
:101600005887CE010196BE01675F7F4F0E949D0DF6
:10161000CE010596BE016F5E7F4F0E949D0D99859C
:10162000923078F089898230C0F0943019F4823099
:1016300041F4CBC0843019F4923079F4C6C09230B2
:1016400051F481E02A859A89291709F480E08A8774
:10165000CE010996BCC0823051F481E02A859A8976
:10166000291709F480E08A8BCE014196B0C06D84C1
:101670007E848F849888ED88FE880F89188DE0E23B
:10168000F0E080E090E0DC01AA24BB24650120E0CA
:1016900030E0A901B3016170707061157105D1F07E
:1016A0002E0D3F1D401F511F15012601280E391E0A
:1016B0004A1E5B1E81E090E0A0E0B0E02E153F05E1
:1016C0004007510718F080E090E0DC01820D931D87
:1016D000A41DB51DAA0CBB1CCC1CDD1C17FF09C02A
:1016E00061E0262E312C412C512CA228B328C4288D
:1016F000D528319749F0EE0CFF1C001F111F96945E
:10170000879477946794C6CF6B897C89EB85FC8539
:101710006E0F7F1F6E5F7F4F7C8F6B8F61E0EA855E
:101720007A89E71709F460E06A8F6B8D7C8D10C0B1
:10173000FC01E170F070309729F056954795379588
:1017400027955068B695A795979587956F5F7F4FBA
:10175000B7FDEECF0CC0880F991FAA1FBB1F57FD06
:101760008160220F331F441F551F6150704080302D
:10177000E0E09E07E0E0AE07E0E4BE0760F36B8FB9
:101780007C8F6FE7E62EF12C012D112DE822F92236
:101790000A231B2360E4E616F1040105110561F438
:1017A00087FD0AC0211531054105510529F0805CEE
:1017B0009F4FAF4FBF4F80788D8F9E8FAF8FB8A355
:1017C00083E0898FCE01499602C083E790E00E94B2
:1017D000CF0CA096E2E10C947B0EA8E1B0E0E3EF21
:1017E000FBE00C946B0E69837A838B839C832D833F
:1017F0003E834F8358878E01075F1F4FCE010196AE
:10180000B8010E949D0D81E1E82EF12CEC0EFD1E29
:10181000CE010596B7010E949D0D8985823040F06A
:101820008989823028F0C801B7010E94060E01C0E4
:101830008FEF6896E6E00C94870EA8E1B0E0E3E253
:10184000FCE00C946B0E69837A838B839C832D83DD
:101850003E834F8358878E01075F1F4FCE0101964D
:10186000B8010E949D0D81E1E82EF12CEC0EFD1EC9
:10187000CE010596B7010E949D0D8985823040F00A
:101880008989823028F0C801B7010E94060E01C084
:101890008FEF6896E6E00C94870EA8E1B0E0E3E5F0
:1018A000FCE00C946B0E69837A838B839C832D837D
:1018B0003E834F8358878E01075F1F4FCE010196ED
:1018C000B8010E949D0D81E1E82EF12CEC0EFD1E69
:1018D000CE010596B7010E949D0D8985823040F0AA
:1018E0008989823028F0C801B7010E94060E01C024
:1018F00081E06896E6E00C94870EACE0B0E0E3E8A7
:10190000FCE00C946F0E69837A838B839C83CE01F9
:101910000196BE016B5F7F4F0E949D0D8D818230CD
:1019200081F1823070F1843021F48E81882369F155
:101930000AC02F81388537FD24C06E812F313105D3
:101940003CF0662311F120E030E040E050E821C097
:101950008EE190E0821B930B29853A854B855C854F
:1019600004C056954795379527958A95D2F76623F3
:1019700081F050954095309521953F4F4F4F5F4FE7
:1019800008C020E030E0A90104C02FEF3FEF4FEF87
:101990005FE7B901CA012C96E2E00C948B0EEF923E
:1019A000FF920F931F93CF93DF93FC012481358126
:1019B0004681578161818081823020F44061EFEF60
:1019C000F0E0A3C0843009F49BC0823009F492C0D7
:1019D000211531054105510509F48FC00280F381BD
:1019E000E02D8FEFE238F8070CF05AC0C2E8DFEFC5
:1019F000CE1BDF0BCA31D1056CF579018A010C2EA3
:101A000004C016950795F794E7940A94D2F781E0FD
:101A100090E0A0E0B0E00C2E04C0880F991FAA1F30
:101A2000BB1F0A94D2F70197A109B109822393231E
:101A3000A423B52321E030E040E050E00097A10569
:101A4000B10519F420E030E0A9012E293F29402BEF
:101A5000512B03C020E030E0A901DA01C9018F77E2
:101A60009070A070B07080349105A105B10539F473
:101A700027FF09C0205C3F4F4F4F5F4F04C0215CE0
:101A80003F4F4F4F5F4FE1E0F0E0203080E03807FC
:101A900080E0480780E4580728F5E0E0F0E022C045
:101AA000E038F1056CF5E158FF4FDA01C9018F7795
:101AB0009070A070B07080349105A105B10539F423
:101AC00027FF09C0205C3F4F4F4F5F4F04C0215C90
:101AD0003F4F4F4F5F4F57FF05C05695479537957E
:101AE0002795319687E056954795379527958A959E
:101AF000D1F70BC0E0E0F0E005C0E0E0F0E005C0A9
:101B0000EFEFF0E020E030E0A9018E2F87958827E5
:101B10008795942F9F77679566276795E695E22EC0
:101B2000A92FA82BFE2FF62B622F732F8A2F9F2F02
:101B3000CDB7DEB7E6E00C94870EDC01FB012C91FB
:101B400011963C91119712968C911297482F4F77CE
:101B500050E0982F991F9927991F13966C9113970E
:101B6000862F880F892B90E0661F6627661F61838A
:101B7000009739F5211531054105510511F482E031
:101B800029C082E89FEF9383828367E0220F331F8F
:101B9000441F551F6A95D1F783E0808309C0220F47
:101BA000331F441F551F8281938101979383828342
:101BB000203080E0380780E0480780E4580778F359
:101BC00020C08F3F910579F421153105410551055C
:101BD00019F484E08083089544FF03C081E080838A
:101BE00010C010820EC08F5790409383828383E091
:101BF000808387E0220F331F441F551F8A95D1F73A
:101C0000506424833583468357830895FC01DB01A8
:101C10009081923008F449C08C91823008F445C01C
:101C2000943051F461818430B1F511962C91119763
:101C300030E0261B310941C0843021F0923041F45C
:101C40008230B1F111968C9111978823A1F12DC0AA
:101C50006181823001F111968C9111976817D9F446
:101C60002281338112968D919C911397821793074D
:101C700094F028173907BCF02481358146815781BB
:101C800014968D919D910D90BC91A02D8217930774
:101C9000A407B50718F4662341F00DC028173907CB
:101CA0004A075B0728F4662331F021E030E005C0E5
:101CB00020E030E002C02FEF3FEFC90108952F92DE
:101CC0003F924F925F926F927F928F929F92AF92CC
:101CD000BF92CF92DF92EF92FF920F931F93CF9319
:101CE000DF93CDB7DEB7CA1BDB0B0FB6F894DEBFB0
:101CF0000FBECDBF09942A88398848885F846E84D6
:101D00007D848C849B84AA84B984C884DF80EE801F
:101D1000FD800C811B81AA81B981CE0FD11D0FB628
:101D2000F894DEBF0FBECDBFED010895F894FFCF4C
:101D30004554495120544543484E4F4C4F4749451F
:0C1D400053000100000000000000000043
:00000001FF
